{
  "abi": [
    {
      "inputs": [],
      "name": "increment",
      "outputs": [],
      "stateMutability": "nonpayable",
      "type": "function"
    },
    {
      "inputs": [],
      "name": "number",
      "outputs": [
        {
          "internalType": "uint256",
          "name": "",
          "type": "uint256"
        }
      ],
      "stateMutability": "view",
      "type": "function"
    }
  ],
  "bytecode": {
    "object": "0x608060405234801561001057600080fd5b5061017e806100206000396000f3fe608060405234801561001057600080fd5b50600436106100365760003560e01c80638381f58a1461003b578063d09de08a14610059575b600080fd5b610043610063565b60405161005091906100a8565b60405180910390f35b610061610069565b005b60005481565b600a6000541061007857600080fd5b600160005461008791906100f2565b600081905550565b6000819050919050565b6100a28161008f565b82525050565b60006020820190506100bd6000830184610099565b92915050565b7f4e487b7100000000000000000000000000000000000000000000000000000000600052601160045260246000fd5b60006100fd8261008f565b91506101088361008f565b9250827fffffffffffffffffffffffffffffffffffffffffffffffffffffffffffffffff0382111561013d5761013c6100c3565b5b82820190509291505056fea2646970667358221220ad4f8bcd003a65ca54686b6174a57128aa9ce6e487bc3378c35935a5930a7e9664736f6c634300080c0033",
    "linkReferences": {}
  },
  "methodIdentifiers": {
    "increment()": "d09de08a",
    "number()": "8381f58a"
  },
  "id": 0
}