{
  "abi": [
    {
      "inputs": [],
      "name": "e",
      "outputs": [
        {
          "internalType": "uint256",
          "name": "",
          "type": "uint256"
        }
      ],
      "stateMutability": "view",
      "type": "function"
    },
    {
      "inputs": [],
      "name": "ers",
      "outputs": [
        {
          "internalType": "uint8",
          "name": "",
          "type": "uint8"
        }
      ],
      "stateMutability": "view",
      "type": "function"
    },
    {
      "inputs": [],
      "name": "red",
      "outputs": [],
      "stateMutability": "nonpayable",
      "type": "function"
    }
  ],
  "bytecode": {
    "object": "0x608060405260226000556020600160006101000a81548160ff021916908360ff16021790555034801561003157600080fd5b50610150806100416000396000f3fe608060405234801561001057600080fd5b50600436106100415760003560e01c80632930cf24146100465780637ac9d73814610050578063ffae15ba1461006e575b600080fd5b61004e61008c565b005b610058610096565b60405161006591906100cb565b60405180910390f35b6100766100a9565b60405161008391906100ff565b60405180910390f35b6004600081905550565b600160009054906101000a900460ff1681565b60005481565b600060ff82169050919050565b6100c5816100af565b82525050565b60006020820190506100e060008301846100bc565b92915050565b6000819050919050565b6100f9816100e6565b82525050565b600060208201905061011460008301846100f0565b9291505056fea26469706673582212204978008c55b04f0bc9f8787ff40dd7ac86b5f46a2291b130f450685c9c23417264736f6c634300080c0033",
    "linkReferences": {}
  },
  "methodIdentifiers": {
    "e()": "ffae15ba",
    "ers()": "7ac9d738",
    "red()": "2930cf24"
  },
  "id": 0
}