{
  "abi": [
    {
      "inputs": [],
      "name": "TRANSACTION_PARAMS_TYPEHASH",
      "outputs": [
        {
          "internalType": "bytes32",
          "name": "",
          "type": "bytes32"
        }
      ],
      "stateMutability": "view",
      "type": "function"
    },
    {
      "inputs": [],
      "name": "VALIDATION_PARAMS_TYPEHASH",
      "outputs": [
        {
          "internalType": "bytes32",
          "name": "",
          "type": "bytes32"
        }
      ],
      "stateMutability": "view",
      "type": "function"
    }
  ],
  "bytecode": {
    "object": "0x61012a610053600b82828239805160001a607314610046577f4e487b7100000000000000000000000000000000000000000000000000000000600052600060045260246000fd5b30600052607381538281f3fe7300000000000000000000000000000000000000003014608060405260043610603d5760003560e01c806306e01350146042578063aaa5e62d14605c575b600080fd5b60486076565b6040516053919060db565b60405180910390f35b6062609d565b604051606d919060db565b60405180910390f35b7f0c7f653e0f641e41fbb4ed1440c7d0b08b8d2a19e1c35cfc98de2d47519e15b160001b81565b7ffd4628b53a91b366f1977138e2eda53b93c8f5cc74bda8440f108d7da1e9929060001b81565b6000819050919050565b60d58160c4565b82525050565b600060208201905060ee600083018460ce565b9291505056fea2646970667358221220ef78c693e50f13b582cea66888d7d32879a7347ad0f99069f4fc8380a20e566b64736f6c634300080c0033",
    "linkReferences": {}
  },
  "methodIdentifiers": {
    "TRANSACTION_PARAMS_TYPEHASH()": "aaa5e62d",
    "VALIDATION_PARAMS_TYPEHASH()": "06e01350"
  },
  "id": 0
}