{
  "abi": [
    {
      "inputs": [],
      "name": "destroy",
      "outputs": [],
      "stateMutability": "nonpayable",
      "type": "function"
    },
    {
      "inputs": [],
      "name": "red",
      "outputs": [],
      "stateMutability": "nonpayable",
      "type": "function"
    },
    {
      "inputs": [],
      "name": "reds",
      "outputs": [
        {
          "internalType": "uint256",
          "name": "",
          "type": "uint256"
        }
      ],
      "stateMutability": "view",
      "type": "function"
    }
  ],
  "bytecode": {
    "object": "0x608060405234801561001057600080fd5b5060f08061001f6000396000f3fe6080604052348015600f57600080fd5b5060043610603c5760003560e01c80632930cf2414604157806383197ef01460495780638b9129f6146051575b600080fd5b6047606b565b005b604f607b565b005b60576084565b6040516062919060a1565b60405180910390f35b6000600590506000808190555050565b60008081905550565b60005481565b6000819050919050565b609b81608a565b82525050565b600060208201905060b460008301846094565b9291505056fea26469706673582212201232c0c8f1a0dbc572711ab8931638bfbb9810c201d4974e98b5580e64db569e64736f6c634300080c0033",
    "linkReferences": {}
  },
  "methodIdentifiers": {
    "destroy()": "83197ef0",
    "red()": "2930cf24",
    "reds()": "8b9129f6"
  },
  "id": 0
}